{
  "_format": "hh-sol-artifact-1",
  "contractName": "Counter",
  "sourceName": "src/Counter/Counter.sol",
  "abi": [
    {
      "anonymous": false,
      "inputs": [
        {
          "indexed": false,
          "internalType": "string",
          "name": "",
          "type": "string"
        }
      ],
      "name": "Failure",
      "type": "event"
    },
    {
      "anonymous": false,
      "inputs": [
        {
          "indexed": false,
          "internalType": "string",
          "name": "msg",
          "type": "string"
        }
      ],
      "name": "Reset",
      "type": "event"
    },
    {
      "inputs": [],
      "name": "getCount",
      "outputs": [
        {
          "internalType": "int256",
          "name": "",
          "type": "int256"
        }
      ],
      "stateMutability": "view",
      "type": "function"
    },
    {
      "inputs": [],
      "name": "incrementCounter",
      "outputs": [],
      "stateMutability": "nonpayable",
      "type": "function"
    },
    {
      "inputs": [],
      "name": "resetCounter",
      "outputs": [],
      "stateMutability": "nonpayable",
      "type": "function"
    },
    {
      "inputs": [
        {
          "internalType": "int256",
          "name": "newCount",
          "type": "int256"
        }
      ],
      "name": "setCounter",
      "outputs": [],
      "stateMutability": "nonpayable",
      "type": "function"
    }
  ],
  "bytecode": "0x60806040526000805534801561001457600080fd5b5061022a806100246000396000f3fe608060405234801561001057600080fd5b506004361061004c5760003560e01c80635b34b9661461005157806393d9df161461005b578063a87d942c1461006e578063dbdf7fce14610083575b600080fd5b61005961008b565b005b610059610069366004610195565b6100a4565b60005460405190815260200160405180910390f35b610059610127565b600160008082825461009d91906101c4565b9091555050565b60648113806100b35750600081125b15610122577ffd5de27667e5407df5be0b6efb7f86ae8c40433040399a5e4d36a46ccc50638d6040516101179060208082526016908201527f436f756e74206973206f7574206f6620626f756e647300000000000000000000604082015260600190565b60405180910390a150565b600055565b600080556040517fa204ec6a4c301f826e1580f4ca8da0c3f3ad2d807d9f613ad7df4f1d286c7bcc9061018b906020808252600f908201527f436f756e74207761732072657365740000000000000000000000000000000000604082015260600190565b60405180910390a1565b6000602082840312156101a757600080fd5b5035919050565b634e487b7160e01b600052601160045260246000fd5b6000808212827f7fffffffffffffffffffffffffffffffffffffffffffffffffffffffffffffff038413811516156101fe576101fe6101ae565b600160ff1b8390038412811615610217576102176101ae565b5050019056fea164736f6c634300080d000a",
  "linkReferences": {},
  "deployedLinkReferences": {}
}